{
    "contractName": "register",
    "abi": [
        {
            "inputs": [
                {
                    "internalType": "uint256",
                    "name": "_schoolNumber",
                    "type": "uint256"
                },
                {
                    "internalType": "string",
                    "name": "newClassName",
                    "type": "string"
                }
            ],
            "name": "changeTheClassName",
            "outputs": [],
            "stateMutability": "nonpayable",
            "type": "function"
        },
        {
            "inputs": [
                {
                    "internalType": "uint256",
                    "name": "_schoolNumber",
                    "type": "uint256"
                },
                {
                    "internalType": "string",
                    "name": "newName",
                    "type": "string"
                }
            ],
            "name": "changeTheName",
            "outputs": [],
            "stateMutability": "nonpayable",
            "type": "function"
        },
        {
            "inputs": [
                {
                    "internalType": "uint256",
                    "name": "_schoolNumber",
                    "type": "uint256"
                },
                {
                    "internalType": "uint256",
                    "name": "newSchoolNumber",
                    "type": "uint256"
                }
            ],
            "name": "changeTheSchoolNumber",
            "outputs": [],
            "stateMutability": "nonpayable",
            "type": "function"
        },
        {
            "inputs": [
                {
                    "internalType": "uint256",
                    "name": "_schoolNumber",
                    "type": "uint256"
                }
            ],
            "name": "deleteStudent",
            "outputs": [],
            "stateMutability": "nonpayable",
            "type": "function"
        },
        {
            "inputs": [
                {
                    "internalType": "address payable",
                    "name": "_adres",
                    "type": "address"
                },
                {
                    "internalType": "string",
                    "name": "_name",
                    "type": "string"
                },
                {
                    "internalType": "uint256",
                    "name": "_schoolNumber",
                    "type": "uint256"
                },
                {
                    "internalType": "string",
                    "name": "_className",
                    "type": "string"
                },
                {
                    "internalType": "uint256",
                    "name": "_balance",
                    "type": "uint256"
                }
            ],
            "name": "registerStudent",
            "outputs": [],
            "stateMutability": "nonpayable",
            "type": "function"
        },
        {
            "inputs": [
                {
                    "internalType": "uint256",
                    "name": "",
                    "type": "uint256"
                }
            ],
            "name": "studentInfo",
            "outputs": [
                {
                    "internalType": "address payable",
                    "name": "addres",
                    "type": "address"
                },
                {
                    "internalType": "string",
                    "name": "name",
                    "type": "string"
                },
                {
                    "internalType": "uint256",
                    "name": "schoolNumber",
                    "type": "uint256"
                },
                {
                    "internalType": "string",
                    "name": "className",
                    "type": "string"
                },
                {
                    "internalType": "uint256",
                    "name": "balance",
                    "type": "uint256"
                }
            ],
            "stateMutability": "view",
            "type": "function"
        },
        {
            "inputs": [
                {
                    "internalType": "uint256",
                    "name": "_schoolNumber",
                    "type": "uint256"
                }
            ],
            "name": "viewStudent",
            "outputs": [
                {
                    "components": [
                        {
                            "internalType": "address payable",
                            "name": "addres",
                            "type": "address"
                        },
                        {
                            "internalType": "string",
                            "name": "name",
                            "type": "string"
                        },
                        {
                            "internalType": "uint256",
                            "name": "schoolNumber",
                            "type": "uint256"
                        },
                        {
                            "internalType": "string",
                            "name": "className",
                            "type": "string"
                        },
                        {
                            "internalType": "uint256",
                            "name": "balance",
                            "type": "uint256"
                        }
                    ],
                    "internalType": "struct register.StudentInfo",
                    "name": "",
                    "type": "tuple"
                }
            ],
            "stateMutability": "view",
            "type": "function"
        }
    ],
    "bytecode": "6080604052600080546001600160a01b031916735b38da6a701c568545dcfcb03fcb875f56beddc417905534801561003657600080fd5b50610c83806100466000396000f3fe608060405234801561001057600080fd5b506004361061007d5760003560e01c80633a24b5f21161005b5780633a24b5f2146100d7578063420977d8146100ea578063b645307d1461010a578063fe382b0a1461011d57600080fd5b806305773fe41461008257806307eccc751461009757806327cf29f0146100aa575b600080fd5b6100956100903660046107fd565b610130565b005b6100956100a5366004610891565b6102f4565b6100bd6100b83660046108d8565b61032a565b6040516100ce959493929190610937565b60405180910390f35b6100956100e5366004610986565b610486565b6100fd6100f83660046108d8565b6104b3565b6040516100ce91906109a8565b6100956101183660046108d8565b610670565b61009561012b366004610891565b6106d3565b6000546001600160a01b031633036101805760405162461bcd60e51b815260206004820152600f60248201526e3737ba103a34329036b0b730b3b2b960891b604482015260640160405180910390fd5b6040805160a0810182526001600160a01b03878116825260208201878152928201869052606082018590526080820184905260018054808201825560009190915282517fb10e2d527612073b26eecdfd717e6a320cf44b4afac2b0732d9fcbe2b7fa0cf6600590920291820180546001600160a01b031916919093161782559251919290917fb10e2d527612073b26eecdfd717e6a320cf44b4afac2b0732d9fcbe2b7fa0cf7909101906102349082610a9c565b5060408201516002820155606082015160038201906102539082610a9c565b506080820151816004015550506001838154811061027357610273610b5c565b600091825260208083206001600160a01b03808a168552600290925260409093206005909202909201805482546001600160a01b03191693169290921781556001808201906102c490840182610b72565b5060028201548160020155600382018160030190816102e39190610b72565b506004918201549101555050505050565b806001838154811061030857610308610b5c565b906000526020600020906005020160030190816103259190610a9c565b505050565b6001818154811061033a57600080fd5b6000918252602090912060059091020180546001820180546001600160a01b0390921693509061036990610a14565b80601f016020809104026020016040519081016040528092919081815260200182805461039590610a14565b80156103e25780601f106103b7576101008083540402835291602001916103e2565b820191906000526020600020905b8154815290600101906020018083116103c557829003601f168201915b5050505050908060020154908060030180546103fd90610a14565b80601f016020809104026020016040519081016040528092919081815260200182805461042990610a14565b80156104765780601f1061044b57610100808354040283529160200191610476565b820191906000526020600020905b81548152906001019060200180831161045957829003601f168201915b5050505050908060040154905085565b806001838154811061049a5761049a610b5c565b9060005260206000209060050201600201819055505050565b6104ee6040518060a0016040528060006001600160a01b03168152602001606081526020016000815260200160608152602001600081525090565b6001828154811061050157610501610b5c565b60009182526020918290206040805160a0810190915260059092020180546001600160a01b03168252600181018054929391929184019161054190610a14565b80601f016020809104026020016040519081016040528092919081815260200182805461056d90610a14565b80156105ba5780601f1061058f576101008083540402835291602001916105ba565b820191906000526020600020905b81548152906001019060200180831161059d57829003601f168201915b50505050508152602001600282015481526020016003820180546105dd90610a14565b80601f016020809104026020016040519081016040528092919081815260200182805461060990610a14565b80156106565780601f1061062b57610100808354040283529160200191610656565b820191906000526020600020905b81548152906001019060200180831161063957829003601f168201915b505050505081526020016004820154815250509050919050565b6001818154811061068357610683610b5c565b60009182526020822060059091020180546001600160a01b0319168155906106ae6001830182610704565b60028201600090556003820160006106c69190610704565b6004820160009055505050565b80600183815481106106e7576106e7610b5c565b906000526020600020906005020160010190816103259190610a9c565b50805461071090610a14565b6000825580601f10610720575050565b601f01602090049060005260206000209081019061073e9190610741565b50565b5b808211156107565760008155600101610742565b5090565b634e487b7160e01b600052604160045260246000fd5b600082601f83011261078157600080fd5b813567ffffffffffffffff8082111561079c5761079c61075a565b604051601f8301601f19908116603f011681019082821181831017156107c4576107c461075a565b816040528381528660208588010111156107dd57600080fd5b836020870160208301376000602085830101528094505050505092915050565b600080600080600060a0868803121561081557600080fd5b85356001600160a01b038116811461082c57600080fd5b9450602086013567ffffffffffffffff8082111561084957600080fd5b61085589838a01610770565b955060408801359450606088013591508082111561087257600080fd5b5061087f88828901610770565b95989497509295608001359392505050565b600080604083850312156108a457600080fd5b82359150602083013567ffffffffffffffff8111156108c257600080fd5b6108ce85828601610770565b9150509250929050565b6000602082840312156108ea57600080fd5b5035919050565b6000815180845260005b81811015610917576020818501810151868301820152016108fb565b506000602082860101526020601f19601f83011685010191505092915050565b6001600160a01b038616815260a06020820181905260009061095b908301876108f1565b856040840152828103606084015261097381866108f1565b9150508260808301529695505050505050565b6000806040838503121561099957600080fd5b50508035926020909101359150565b602080825282516001600160a01b03168282015282015160a060408301526000906109d660c08401826108f1565b9050604084015160608401526060840151601f198483030160808501526109fd82826108f1565b915050608084015160a08401528091505092915050565b600181811c90821680610a2857607f821691505b602082108103610a4857634e487b7160e01b600052602260045260246000fd5b50919050565b601f82111561032557600081815260208120601f850160051c81016020861015610a755750805b601f850160051c820191505b81811015610a9457828155600101610a81565b505050505050565b815167ffffffffffffffff811115610ab657610ab661075a565b610aca81610ac48454610a14565b84610a4e565b602080601f831160018114610aff5760008415610ae75750858301515b600019600386901b1c1916600185901b178555610a94565b600085815260208120601f198616915b82811015610b2e57888601518255948401946001909101908401610b0f565b5085821015610b4c5787850151600019600388901b60f8161c191681555b5050505050600190811b01905550565b634e487b7160e01b600052603260045260246000fd5b818103610b7d575050565b610b878254610a14565b67ffffffffffffffff811115610b9f57610b9f61075a565b610bad81610ac48454610a14565b6000601f821160018114610be15760008315610bc95750848201545b600019600385901b1c1916600184901b178455610c46565b600085815260209020601f19841690600086815260209020845b83811015610c1b5782860154825560019586019590910190602001610bfb565b5085831015610c395781850154600019600388901b60f8161c191681555b50505060018360011b0184555b505050505056fea2646970667358221220bf178b9661874a8ca4f40d25f16ffca476a82ed98da6adad9b009a93fd16ef1b64736f6c63430008130033",
    "sourcePath": "c:/Users/yusufchilo/Desktop/firstDeploy/first.sol",
    "compiler": {
        "name": "solc",
        "version": "0.8.19+commit.7dd6d404"
    },
    "functionHashes": {
        "changeTheClassName(uint256,string)": "07eccc75",
        "changeTheName(uint256,string)": "fe382b0a",
        "changeTheSchoolNumber(uint256,uint256)": "3a24b5f2",
        "deleteStudent(uint256)": "b645307d",
        "registerStudent(address,string,uint256,string,uint256)": "05773fe4",
        "studentInfo(uint256)": "27cf29f0",
        "viewStudent(uint256)": "420977d8"
    },
    "gasEstimates": {
        "creation": {
            "codeDepositCost": "640600",
            "executionCost": "24912",
            "totalCost": "665512"
        },
        "external": {
            "changeTheClassName(uint256,string)": "infinite",
            "changeTheName(uint256,string)": "infinite",
            "changeTheSchoolNumber(uint256,uint256)": "24559",
            "deleteStudent(uint256)": "infinite",
            "registerStudent(address,string,uint256,string,uint256)": "infinite",
            "studentInfo(uint256)": "infinite",
            "viewStudent(uint256)": "infinite"
        }
    }
}